:020000040801F1
:1000000000060020B91201082D080A0889070A080D
:10001000F5070A0889070A08C1070A08BB12010880
:10002000BB120108BB120108BB12010831460C08C3
:10003000BB120108BB120108BB120108BB12010868
:10004000BB120108BB120108BB120108BB12010858
:10005000BB120108BB120108AD510C08D9510C08A4
:1000600005520C0831520C085D520C0891CC0B085B
:10007000B9CC0B08E5CC0B0811CD0B083DCD0B0816
:1000800065CD0B0891CD0B0845CB0B08BB120108C1
:10009000BB120108BB120108BB12010889520C08EF
:1000A00039DC0B08BB120108BB120108BB120108A6
:1000B000BB120108BB120108E1580C08D1D20B0891
:1000C0006DD40B08BB120108BB120108BB1201085A
:1000D000BB1201089DE20B08B1E20B08C5E20B0858
:1000E000F1520C08BB120108BB120108BB12010837
:1000F000BB120108BB120108BB120108BDCD0B08E1
:10010000BB120108BB120108BB120108BB12010897
:10011000D9E20B08EDE20B08BB120108BB12010883
:10012000E9CD0B0811CE0B083DCE0B0869CE0B08AC
:1001300095CE0B08BB120108BB120108BB120108C7
:10014000BB120108BB120108BB120108694D0C0863
:10015000BDCE0B08E9CE0B0815CF0B08BB1201086A
:10016000BB120108BB120108BB120108BB12010837
:10017000BB120108BB120108BB120108BB12010827
:10018000BB120108BB120108BB120108BB12010817
:10019000BB120108BB120108BB120108BB12010807
:1001A000BB120108BB120108BB120108BB120108F7
:1001B000BB120108BB120108BB120108BB120108E7
:1001C000BB120108BB120108BB120108BB120108D7
:1001D000BB120108BB120108BB120108BB120108C7
:1001E000413301082D6B010889F601084DCB020847
:1001F000DDF403086D9C050879A20508AD1E06080C
:1002000041800608E58706082D8B0608F1100708CF
:10021000FDC70708B9EE070889FA070861D8090879
:1002200089DD09083DFF0908F1A50A08951E0B089C
:10023000657E0B08D9880B0845B80B0891BD0B08E3
:1002400081F0004102E000BF83F0004330B54FEA87
:1002500041044FEA430594EA050F08BF90EA020FF4
:100260001FBF54EA000C55EA020C7FEA645C7FEA87
:10027000655C00F0E2804FEA5454D4EB5555B8BFAA
:100280006D420CDD2C4480EA020281EA030382EA1B
:10029000000083EA010180EA020281EA0303362DAD
:1002A00088BF30BD11F0004F4FEA01314FF4801C80
:1002B0004CEA113102D0404261EB410113F0004F92
:1002C0004FEA03334CEA133302D0524263EB430349
:1002D00094EA050F00F0A780A4F10104D5F1200EE7
:1002E0000DDB02FA0EFC22FA05F2801841F1000142
:1002F00003FA0EF2801843FA05F359410EE0A5F116
:1003000020050EF1200E012A03FA0EFC28BF4CF046
:10031000020C43FA05F3C01851EBE37101F00045FC
:1003200007D54FF0000EDCF1000C7EEB00006EEB09
:100330000101B1F5801F1BD3B1F5001F0CD3490893
:100340005FEA30004FEA3C0C04F101044FEA4452EA
:1003500012F5800F80F09A80BCF1004F08BF5FEA71
:10036000500C50F1000041EB045141EA050130BD51
:100370005FEA4C0C404141EB0101013C28BFB1F563
:10038000801FE9D291F0000F04BF01460020B1FAAE
:1003900081F308BF2033A3F10B03B3F120020CDA81
:1003A0000C3208DD02F1140CC2F10C0201FA0CF05F
:1003B00021FA02F10CE002F11402D8BFC2F1200CC4
:1003C00001FA02F120FA0CFCDCBF41EA0C0190407A
:1003D000E41AA2BF01EB0451294330BD6FEA0404C3
:1003E0001F3C1CDA0C340EDC04F11404C4F12002AE
:1003F00020FA04F001FA02F340EA030021FA04F3C0
:1004000045EA030130BDC4F10C04C4F1200220FA16
:1004100002F001FA04F340EA0300294630BD21FA54
:1004200004F0294630BD94F0000F83F4801306BF1A
:1004300081F480110134013D4EE77FEA645C18BF0E
:100440007FEA655C29D094EA050F08BF90EA020FA5
:1004500005D054EA000C04BF1946104630BD91EA9D
:10046000030F1EBF0021002030BD5FEA545C05D1A0
:100470004000494128BF41F0004130BD14F58004DF
:100480003CBF01F5801130BD01F0004545F0FE4153
:1004900041F470014FF0000030BD7FEA645C1ABF88
:1004A000194610467FEA655C1CBF0B46024650EABF
:1004B000013406BF52EA033591EA030F41F40021EB
:1004C00030BD00BF90F0000F04BF0021704730B571
:1004D0004FF4806404F132044FF000054FF0000146
:1004E00050E700BF90F0000F04BF0021704730B507
:1004F0004FF4806404F1320410F0004548BF4042DC
:100500004FF000013EE700BF42004FEAE2014FEA30
:1005100031014FEA02701FBF12F07F4393F07F4F0B
:1005200081F06051704732F07F4208BF704793F00E
:100530007F4F04BF41F40021704730B54FF4607421
:1005400001F0004521F000411CE700BF50EA010224
:1005500008BF704730B54FF000050AE050EA0102CD
:1005600008BF704730B511F0004502D5404261EB3D
:1005700041014FF4806404F132045FEA915C3FF47E
:10058000D8AE4FF003025FEADC0C18BF03325FEA1B
:10059000DC0C18BF033202EBDC02C2F1200300FACC
:1005A00003FC20FA02F001FA03FE40EA0E0021FAF1
:1005B00002F11444BDE600BF70B54FF0FF0C4CF4DF
:1005C000E06C1CEA11541DBF1CEA135594EA0C0F91
:1005D00095EA0C0F00F0DEF82C4481EA030621EACC
:1005E0004C5123EA4C5350EA013518BF52EA033507
:1005F00041F4801143F4801338D0A0FB02CE4FF0B9
:100600000005E1FB02E506F00042E0FB03E54FF0E8
:100610000006E1FB03569CF0000F18BF4EF0010EE0
:10062000A4F1FF04B6F5007F64F5407404D25FEADC
:100630004E0E6D4146EB060642EAC62141EA55518F
:100640004FEAC52040EA5E504FEACE2EB4F1FD0CD1
:1006500088BFBCF5E06F1ED8BEF1004F08BF5FEA4F
:10066000500E50F1000041EB045170BD06F0004601
:1006700046EA010140EA020081EA0301B4EB5C04AE
:10068000C2BFD4EB0C0541EA045170BD41F48011A6
:100690004FF0000E013C00F3AB8014F1360FDEBFCB
:1006A000002001F0004170BDC4F10004203C35DAA7
:1006B0000C341BDC04F11404C4F1200500FA05F32A
:1006C00020FA04F001FA05F240EA020001F00042CB
:1006D00021F0004110EBD37021FA04F642EB060141
:1006E0005EEA430E08BF20EAD37070BDC4F10C046B
:1006F000C4F1200500FA04F320FA05F001FA04F22F
:1007000040EA020001F0004110EBD37041F100011A
:100710005EEA430E08BF20EAD37070BDC4F1200525
:1007200000FA05F24EEA020E20FA04F301FA05F28D
:1007300043EA020321FA04F001F0004121FA04F235
:1007400020EA020000EBD3705EEA430E08BF20EA05
:10075000D37070BD94F0000F0FD101F0004640003F
:1007600041EB010111F4801F08BF013CF7D041EAC1
:10077000060195F0000F18BF704703F000465200C5
:1007800043EB030313F4801F08BF013DF7D043EA96
:100790000603704794EA0C0F0CEA135518BF95EA4C
:1007A0000C0F0CD050EA410618BF52EA4306D1D1D3
:1007B00081EA030101F000414FF0000070BD50EAF2
:1007C000410606BF1046194652EA430619D094EA7C
:1007D0000C0F02D150EA013613D195EA0C0F05D166
:1007E00052EA03361CBF104619460AD181EA0301BA
:1007F00001F0004141F0FE4141F470014FF0000072
:1008000070BD41F0FE4141F4780170BD70B54FF00C
:10081000FF0C4CF4E06C1CEA11541DBF1CEA13558C
:1008200094EA0C0F95EA0C0F00F0A7F8A4EB05046E
:1008300081EA030E52EA03354FEA013100F0888065
:100840004FEA03334FF0805545EA131343EA12632E
:100850004FEA022245EA111545EA10654FEA0026E3
:100860000EF000419D4208BF964244F1FD0404F59C
:10087000407402D25B084FEA3202B61A65EB0305F8
:100880005B084FEA32024FF480104FF4002CB6EBB5
:10089000020E75EB030E22BFB61A754640EA0C0035
:1008A0005B084FEA3202B6EB020E75EB030E22BF75
:1008B000B61A754640EA5C005B084FEA3202B6EBB6
:1008C000020E75EB030E22BFB61A754640EA9C0075
:1008D0005B084FEA3202B6EB020E75EB030E22BF45
:1008E000B61A754640EADC0055EA060E18D04FEA03
:1008F000051545EA16754FEA06164FEAC30343EAA3
:1009000052734FEAC2025FEA1C1CC0D111F4801F6F
:100910000BD141EA00014FF000004FF0004CB6E768
:1009200011F4801F04BF01430020B4F1FD0C88BF07
:10093000BCF5E06F3FF6AFAEB5EB030C04BFB6EB12
:10094000020C5FEA500C50F1000041EB045170BD05
:100950000EF0004E4EEA113114EB5C04C2BFD4EB32
:100960000C0541EA045170BD41F480114FF0000EB6
:10097000013C90E645EA060E8DE60CEA135594EA32
:100980000C0F08BF95EA0C0F3FF43BAF94EA0C0F35
:100990000AD150EA01347FF434AF95EA0C0F7FF4AA
:1009A00025AF104619462CE795EA0C0F06D152EAFE
:1009B00003353FF4FDAE1046194622E750EA4106E2
:1009C00018BF52EA43067FF4C5AE50EA41047FF4F3
:1009D0000DAF52EA43057FF4EBAE12E74FF0FF3C58
:1009E00006E000BF4FF0010C02E000BF4FF0010C29
:1009F0004DF804CD4FEA410C7FEA6C5C4FEA430CA2
:100A000018BF7FEA6C5C1BD001B050EA410C0CBFF0
:100A100052EA430C91EA030F02BF90EA020F002052
:100A2000704710F1000F91EA030F58BF994208BFB9
:100A300090422CBFD8176FEAE37040F00100704776
:100A40004FEA410C7FEA6C5C02D150EA013C07D1CD
:100A50004FEA430C7FEA6C5CD6D152EA033CD3D018
:100A60005DF8040B704700BF8446104662468C4612
:100A70001946634600E000BF01B5FFF7B7FF002845
:100A800048BF10F1000F01BD4DF808EDFFF7F4FF6E
:100A90000CBF012000205DF808FB00BF4DF808EDF9
:100AA000FFF7EAFF34BF012000205DF808FB00BF1C
:100AB0004DF808EDFFF7E0FF94BF012000205DF83E
:100AC00008FB00BF4DF808EDFFF7CEFF94BF0120F3
:100AD00000205DF808FB00BF4DF808EDFFF7C4FFEC
:100AE00034BF012000205DF808FB00BF4FEA410C35
:100AF0007FEA6C5C02D150EA013C0AD14FEA430C18
:100B00007FEA6C5C02D152EA033C02D14FF0000054
:100B100070474FF0010070474FEA410212F5001292
:100B200015D211D56FF47873B3EB625212D94FEA34
:100B3000C12343F0004343EA505311F0004F23FA1E
:100B400002F018BF404270474FF00000704750EA73
:100B5000013005D111F0004008BF6FF00040704730
:100B60004FF00000704700BF4A0011D212F500128A
:100B700011D20DD56FF47873B3EB62520ED44FEAF5
:100B8000C12343F0004343EA505323FA02F0704775
:100B90004FF00000704750EA013002D14FF0FF30B3
:100BA00070474FF0000070474FEA4102B2F1E04356
:100BB00024BFB3F5001CDCF1FE5C0DD901F0004C44
:100BC0004FEAC0024CEA5070B2F1004F40EB830094
:100BD00008BF20F00100704711F0804F21D113F1C0
:100BE0003872BCBF01F00040704741F480114FEAF9
:100BF0005252C2F11802C2F1200C10FA0CF320FA82
:100C000002F018BF40F001004FEAC1234FEAD3239E
:100C100003FA0CFC40EA0C0023FA02F34FEA430308
:100C2000CCE77FEA625307D150EA01331EBF4FF091
:100C3000FE4040F44000704701F0004040F0FE40AC
:100C400040F40000704700BF80F0004002E000BFA9
:100C500081F0004142001FBF5FEA410392EA030FA7
:100C60007FEA226C7FEA236C6AD04FEA1262D2EBF1
:100C70001363C1BFD218414048404140B8BF5B42F6
:100C8000192B88BF704710F0004F40F4000020F08F
:100C90007F4018BF404211F0004F41F4000121F0A5
:100CA0007F4118BF494292EA030F3FD0A2F10102EF
:100CB00041FA03FC10EB0C00C3F1200301FA03F12D
:100CC00000F0004302D5494260EB4000B0F5000F50
:100CD00013D3B0F1807F06D340084FEA310102F10F
:100CE0000102FE2A51D2B1F1004F40EBC25008BFC1
:100CF00020F0010040EA03007047490040EB00008B
:100D0000013A28BFB0F5000FEDD2B0FA80FCACF18B
:100D1000080CB2EB0C0200FA0CF0AABF00EBC250B8
:100D200052421843BCBFD0401843704792F0000FA6
:100D300081F4000106BF80F400000132013BB5E7F9
:100D40004FEA41037FEA226C18BF7FEA236C21D06F
:100D500092EA030F04D092F0000F08BF08467047D4
:100D600090EA010F1CBF0020704712F07F4F04D1A2
:100D7000400028BF40F00040704712F100723CBFB5
:100D800000F50000704700F0004343F0FE4040F4DF
:100D9000000070477FEA226216BF08467FEA23639D
:100DA0000146420206BF5FEA412390EA010F40F488
:100DB000800070474FF0000304E000BF10F00043D4
:100DC00048BF40425FEA000C08BF704743F09643BB
:100DD00001464FF000001CE050EA010208BF7047D6
:100DE0004FF000030AE000BF50EA010208BF70475D
:100DF00011F0004302D5404261EB41015FEA010C72
:100E000002BF84460146002043F0B64308BFA3F169
:100E10008053A3F50003BCFA8CF2083AA3EBC2534B
:100E200010DB01FA02FC634400FA02FCC2F120026A
:100E3000BCF1004F20FA02F243EB020008BF20F0A1
:100E40000100704702F1200201FA02FCC2F1200207
:100E500050EA4C0021FA02F243EB020008BF20EAFC
:100E6000DC7070477BB972B90029BEBF00204FF01B
:100E7000004106E008BF00281CBF6FF000414FF0A2
:100E8000FF3000F017BAADF1080C6DE904CE00296F
:100E900009DB002B1ADB00F0A5F8DDF804E0DDE942
:100EA000022304B07047404261EB4101002B1BDB81
:100EB00000F098F8DDF804E0DDE9022304B04042D8
:100EC00061EB4101524263EB43037047524263EBD3
:100ED000430300F087F8DDF804E0DDE9022304B005
:100EE000404261EB41017047524263EB430300F023
:100EF00079F8DDF804E0DDE9022304B0524263EB47
:100F00004303704753B94AB9002908BF00281CBFE2
:100F10004FF0FF314FF0FF3000F0CCB9ADF1080CCD
:100F20006DE904CE00F05EF8DDF804E0DDE90223AF
:100F300004B07047430803F05533C01A830803F028
:100F4000333300F03330184400EB101000F00F3052
:100F500000EB002000EB0040000E704780EA1040DC
:100F600080EA102080EA101046F6961300F00F0079
:100F700043FA00F000F00100704700BF07EE900A4E
:100F8000F5EEC07AF1EE10FA01D400F00BB8F1EEF4
:100F9000677A08B517EE900A00F004F8404261EB5A
:100FA000410108BDD0B5FFF7AFFA0C4B0022064651
:100FB0000F46FFF701FBFFF7D7FD0446FFF782FA64
:100FC000074B0022FFF7F8FA02460B463046394637
:100FD000FFF73AF9FFF7C8FD2146D0BD0000F03D0C
:100FE0000000F0412DE9F047089D04468E46002B95
:100FF0004DD18A42944669D9B2FA82F252B101FACD
:1010000002F3C2F1200120FA01F10CFA02FC41EADC
:10101000030E94404FEA1C48210CBEFBF8F61FFA61
:101020008CF708FB16E341EA034306FB07F19942FC
:101030000AD91CEB030306F1FF3080F01F819942AF
:1010400040F21C81023E63445B1AA4B2B3FBF8F089
:1010500008FB103344EA034400FB07F7A7420AD910
:101060001CEB040400F1FF3380F00A81A74240F238
:1010700007816444023840EA0640E41B00261DB1A3
:10108000D4400023C5E900433146BDE8F0878B42D8
:1010900009D9002D00F0EF800026C5E90001304697
:1010A0003146BDE8F087B3FA83F6002E4AD18B4271
:1010B00002D3824200F2F980841A61EB030301201B
:1010C0009E46002DE0D0C5E9004EDDE702B9FFDE07
:1010D000B2FA82F2002A40F09280A1EB0C014FEAB2
:1010E0001C471FFA8CFE0126200CB1FBF7F307FB0F
:1010F000131140EA01410EFB03F0884208D91CEBB2
:10110000010103F1FF3802D2884200F2CB8043464E
:10111000091AA4B2B1FBF7F007FB101144EA01442D
:101120000EFB00FEA64508D91CEB040400F1FF31BC
:1011300002D2A64500F2BB800846A4EB0E0440EAAA
:1011400003409CE7C6F12007B34022FA07FC4CEAB3
:10115000030C20FA07F401FA06F31C43F9404FEAA6
:101160001C4900FA06F3B1FBF9F8200C1FFA8CFEBB
:1011700009FB181140EA014108FB0EF0884202FA0F
:1011800006F20BD91CEB010108F1FF3A80F08880D0
:10119000884240F28580A8F102086144091AA4B28D
:1011A000B1FBF9F009FB101144EA014100FB0EFE0E
:1011B0008E4508D91CEB010100F1FF346CD28E453D
:1011C0006AD90238614440EA0840A0FB0294A1EBCE
:1011D0000E01A142C846A64656D353D05DB1B3EB2B
:1011E000080261EB0E0101FA07F722FA06F3F1405B
:1011F0001F43C5E9007100263146BDE8F087C2F102
:101200002003D8400CFA02FC21FA03F39140014379
:101210004FEA1C471FFA8CFEB3FBF7F007FB1036B2
:101220000B0C43EA064300FB0EF69E4204FA02F45E
:1012300008D91CEB030300F1FF382FD29E422DD9B1
:10124000023863449B1B89B2B3FBF7F607FB1633E6
:1012500041EA034106FB0EF38B4208D91CEB010166
:1012600006F1FF3816D28B4214D9023E6144C91AE6
:1012700046EA004638E72E46284605E70646E3E6F6
:101280001846F8E64B45A9D2B9EB020864EB0C0E00
:101290000138A3E74646EAE7204694E74046D1E70F
:1012A000D0467BE7023B614432E7304609E76444BD
:1012B000023842E7704700BF02E000F000F8FEE7A6
:1012C00072B63A4880F30888394880F3098839486B
:1012D0004EF60851CEF20001086040F20000CCF258
:1012E00000004EF63471CEF200010860BFF34F8F5C
:1012F000BFF36F8F40F20000C0F2F0004EF688514D
:10130000CEF200010860BFF34F8FBFF36F8F4FF035
:101310000000E1EE100A4EF63C71CEF200010860CA
:10132000062080F31488BFF36F8FB3F001FAB3F097
:10133000DDF9AFF033FB4FF055301F491B4A9142A6
:101340003CBF41F8040BFAE71C49194A91423CBFE3
:1013500041F8040BFAE71A491A4A1B4B9A423EBF5E
:1013600051F8040B42F8040BF8E700201749184A1B
:1013700091423CBF41F8040BFAE7B3F0BBF9AFF080
:1013800061FB144C144DAC4203DA54F8041B88473B
:10139000F9E701F0C5FF114C114DAC4203DA54F8E6
:1013A000041B8847F9E7B3F0A3B90000000600204A
:1013B000002200200000010800000020000600209C
:1013C000189C0E0800220020102B0020102B00205B
:1013D00070420120E00101084002010840020108BA
:1013E000400201082DE9F04F2DED108AC1F80CD014
:1013F000C3689D46BDEC108ABDE8F08F002383F3DF
:1014000011882846A0470020AFF026F9FEE7AEF08D
:10141000C7FF00DFFEE7000001F0FF01102A2BDB11
:1014200010F0070F08D010F8013B013A8B422DD085
:1014300010F0070F42B3F6D1F0B441EA012141EABE
:10144000014122F007047FF000070023F0E8025674
:10145000083C85EA010586EA010685FA47F5A3FA04
:1014600087F586FA47F6A5FA87F68EB9EED1F0BC75
:1014700001F0FF0102F0070232B110F8013B013A1E
:1014800083EA010313B1F8D1002070470138704797
:10149000002D06BF35460338073815F0010F07D178
:1014A000013015F4807F02BF013015F4C03F0130D8
:1014B000F0BC0138704700BF10F8012B11F8013B58
:1014C000012A28BF9A42F7D0D01A7047034613F872
:1014D000012B002AFBD1181A0138704738B50022B9
:1014E000002304460D46FFF7D9FA28B920462946BD
:1014F000BDE8384000F00AB8204605F1004100F090
:1015000005F8404261EB410138BD00BFD0B50C4B3E
:10151000002206460F46FFF74FF8FFF725FB04466B
:10152000FEF7D0FF074B0022FFF746F802460B46B6
:1015300030463946FEF788FEFFF716FB2146D0BD40
:101540000000F03D0000F041012070477FB5836846
:10155000012B04460A4605D05B0603D40125284624
:1015600004B070BD144E039296F9423F002BF5D0A3
:101570005EF056F8437A039A8BB1104BD3F8C43916
:10158000B3F90610B6F9443F9942E7DA0C4B0093E1
:1015900040210C4B204682F089FF0025DFE70392B3
:1015A0005EF03EF8857A039A002DE6D1064B402185
:1015B000204682F07BFFD2E7183B0020184B00202A
:1015C00013C10C0801C10C08F4C00C082DE9F0414E
:1015D0008368012B90B004460D4602D0990640F175
:1015E000A780544E96F9423FBBB106F58052B6F93A
:1015F000443FD2F8C429B2F90A1003F10A02914219
:1016000003DD40F28D32934207DC4B4B2A4620210A
:10161000204682F04BFF002087E096F9313F022BF5
:1016200005D1464B2A462021204682F03FFFB6F8DE
:10163000043FA3F57A739BB241F6583293420FD818
:101640003F4FD7F8983A06F66C7292ED007AD3EDD8
:10165000097AB4EEE77AF1EE10FA03DD394BD5E7FB
:10166000394BD3E706F5776292ED007AD3ED0A7A2B
:10167000B4EEE77AF1EE10FAF0DCB6F93E3F002B5B
:1016800001DC324BC2E7A7F5805898F8FC200D2A00
:1016900004D84FF42153D340DA071DD42C480FF05F
:1016A000ADFA012806D1D7F8A00A7BF0F9FFA8B15E
:1016B00001281CD000212E2204A803AE0391B6F00D
:1016C0004DFE2449D7F89C0A322332467BF0EAFBD0
:1016D00010BB214B009604E0204B97E7204B009372
:1016E000204B2A462021204682F0E0FE93E798F81E
:1016F000DC3ADB070ED51C48192148F0EFFF48B152
:101700001948D6F81C6F192149F00EF88642D1DD30
:10171000164BE4E7164BE2E71649D7F8980A32234E
:10172000324679F08FFD0028D3D010B0BDE8F081AB
:101730000120FAE7183B00201CC10C082FC10C083F
:10174000185B002067C10C0857C10C0881C10C0848
:10175000A076002010C20C0814C20C0896C10C0818
:10176000DBC10C08B6C10C08A0380020FAC10C0877
:10177000EBC10C0826C20C0807B504487DF0CAFA74
:1017800000F0010003B05DF804FB00BF9465002089
:101790002DE9F043DFF878810446D8F8240E036879
:1017A00099B01B690D469847814616F027F900212C
:1017B00007462E220CA80B91B6F0D0FD32230BAABF
:1017C0004946384615F0F2FD064648B9444A0BAB87
:1017D0002946204683F08AF8304619B0BDE8F083E8
:1017E000A8F5F87069F01AFBB9F1000F0BD0A8F555
:1017F000005013F0B5F980B93A4A2946204683F0E3
:1018000075F80026E8E710F0060FE5D0A8F50050BF
:1018100013F0A6F908B9344AEFE703A9384615F0E2
:1018200057FC28B19DF80D305B0601D52F4AE4E73F
:10183000DFF8E080D8ED007AF5EEC07AF1EE10FA2C
:101840004FF0000335DD089309930A930DF1200949
:1018500007AB019305AA06AB04A9CDF80090384662
:1018600015F03CFF48462BF0D7FAD8ED007AB4EEDD
:10187000E70AF1EE10FA01DB1D4ABEE79DED057A9D
:10188000F4EEC77AF1EE10FA01D81A4AB5E79DEDE9
:10189000047AF4EEC77AF1EE10FA01D8164AACE7F2
:1018A0009DED067AF4EEC77AF1EE10FA01D8134AEC
:1018B000A3E707F52F71124805F0F8FA074608B1BB
:1018C000104A9AE710490E4805F0F0FA002883D034
:1018D0000E4A2946204683F009F83E467CE700BFC1
:1018E0002CC20C0835C20C084CC20C0872C20C0881
:1018F00080C20C0895C20C08ABC20C08C1C20C080F
:10190000182B0020D5C20C0884650020F2C20C08F8
:10191000184B0020784A002008B5064B93F83D3E4E
:101920009B0704D5044A82F0E1FF002008BD012096
:10193000FCE700BF184B002014C30C0870B5836887
:1019400013F0210F8EB005460E4603D10124204628
:101950000EB070BD83F0E6FF04460028F6D00021EB
:101960002E2202A80191B6F0F9FC2046322201A9EC
:1019700083F0A0FF04460028E8D1034A01AB3146BA
:10198000284682F0B3FFE2E79A1C0D0870B50C4CB4
:101990000546D4F8240E03685B690E46984710B1DB
:1019A0000124204670BDA4F5005013F0EBF8044666
:1019B0000028F5D1034A3146284682F097FFF0E728
:1019C000184B002024C30C082DE9704D3F4ED6F86B
:1019D000483E93F871408FB082468B4684B95DF0E3
:1019E0001FFE20215EF0D8FDA8B15DF019FE1F2179
:1019F0005EF0D2FD40B1364A5946504682F076FF3D
:101A000020460FB0BDE8708D5DF00AFEA5215EF0A6
:101A1000C3FD0028EFD196F81A3E03F01403142BEF
:101A200001D12C4AE8E72C4B1D780DB12B4AE3E796
:101A30005946504683F028FD04460028E0D02E2267
:101A4000294602A80195B6F089FCD6F8480E03682D
:101A500001AA1B6832219847044630B9204A01ABDD
:101A60005946504682F042FFCAE7DAF808303BB9DF
:101A7000DAF8003059465B6B504698470446BFE79A
:101A800059465046FFF7A2FD594680465046FFF79B
:101A900043FF08EA0000C4B259465046FFF74EFF24
:101AA000594604405046FFF751FD59460440504600
:101AB000FFF76CFF59460440504682F0C5FF594677
:101AC0000440504683F0F8FC044099E7184B00208E
:101AD00038C30C0852C30C08A88500200E330D082B
:101AE0006AC30C0808B5FFF76FFF054A92F8181E85
:101AF00060F3041182F8181E024A907108BD00BFFD
:101B0000184B0020957B0020F7B505460E4682F065
:101B10006DFC044658B3AB68012B01D0990726D55C
:101B200014487DF0F7F8C205C0F30723C0F300277F
:101B30001DD49B071BD50F487DF0FAF80E4B03F51B
:101B40002463D3ED007AF8EEE77A30EE670ADFED32
:101B50000B7AB0EEC00AB4EEE70AF1EE10FA06DD39
:101B6000074B32460221284682F0A0FC3C46204624
:101B700003B0F0BD94650020185B00200000C8424F
:101B800078C30C08F8B504460F4682F05BFEA368E4
:101B9000012B054601D0DB060BD52046FFF7ECFDF7
:101BA000064630B9044B3A461021204682F07EFCAE
:101BB00035462846F8BD00BF8CC30C0813B5044653
:101BC000019182F013FC78B1A368019A012B01D036
:101BD0001B0609D5054B93F831332BB12046044B36
:101BE000802182F063FC002002B010BD185B002051
:101BF000A0C30C0810B5094B0446D3F8A00A7BF02B
:101C00004FFD022804D02046BDE8104082F0F0BB12
:101C100003480EF0F3FF0128F5D110BD185B00203A
:101C2000A0760020F0B5114C85B0D4F8BC390093F3
:101C3000D4F8C0390193D4F8C43902936A46D4F871
:101C4000C839039306460F4683F0B0FB3946054674
:101C5000304682F0ADFD94F8183E284060F3C3038F
:101C6000C3F3C00084F8183E05B0F0BD184B002047
:101C70002DE9F84305462348DFF89890224E0F4699
:101C800069F0CCF88046D9F8240E03681B699847A0
:101C9000044630B918F0060F03D1D9F8583E022B8C
:101CA00008D13946284682F035FC044610B9002395
:101CB000F37109E039462846FFF76AFD034600281C
:101CC000F5D024B90122F2711846BDE8F883AA685C
:101CD000012A01D01207F5D50C4A92F8D813B0208A
:101CE00000FB012102F58052B1F8E611B2F9322F62
:101CF0009142E7DD064B3A460821284682F0D6FBA2
:101D0000D5E700BF28490020957B0020182B002034
:101D1000B4C30C08184B00202DE9F3410F460546CB
:101D200015F06CFE804615F095F9044640B9504A0E
:101D30000121284682F0DAFD204602B0BDE8F0819C
:101D40004C4ED6F8240E036839469B6998470446E2
:101D500058B9D6F8240E03689B6B9847464A034649
:101D60000121284682F0C2FDE6E7AB68002BE3D0F4
:101D7000012B01D0DA0623D5D8ED917A98ED900A9F
:101D800020EE270AB4F08EF8DFED3C7A3C4B20EED3
:101D9000270AB3F9043FDFED3B7A20EE270A07EE6E
:101DA000903AF8EEE77AB4EEE70AF1EE10FA07DDC2
:101DB000354B01221021284682F078FB0024BBE736
:101DC000AB68012B01D05B0628D5012F18D0D6F8BF
:101DD000C4392E48B3F9083000EE103AB8EEC00A04
:101DE00000F038FBB5EEC00AF1EE10FA24DD284B06
:101DF00000930122274B4021284682F057FBDDE764
:101E0000D6F8240E03681B689847042806D0D6F835
:101E1000240E03681B6898471428D8D11E4B1B68F2
:101E2000586D03681B6A98470128014619D11B4A5F
:101E3000284682F05BFDC1E7D6F8240E03685B6993
:101E4000984730B1D6F8C439B3F90830002BE5DD36
:101E5000CDE7D6F8240E03681B6898470B28DDD120
:101E6000F0E73946284602B0BDE8F04183F032B8C9
:101E7000C4C30C08184B0020D5C30C08E02E6542E3
:101E8000183B00200000C842E9C30C08182B0020B2
:101E900013C10C08F1C30C08F0790020FDC30C0835
:101EA00070B505460E46FFF773FC084B0446D87123
:101EB00031462846FFF76AFD31460028284608BF0C
:101EC000002483F065FA204070BD00BF957B0020A0
:101ED0002DE9F0414E4F3B78002B40F097804D4C60
:101EE000D4F8485E95F8715001263E701DB13B70E4
:101EF0002846BDE8F08183F089FB054630B9464AA3
:101F00003870137843F001031370F1E752F07AF858
:101F1000314651F0FDF8A4F5005006F0B1FE3F4BFC
:101F20001E710B2643F04AFE013E43F0E5FD16F01C
:101F3000FF06F7D13A4800F051FE15F05FFDD0F8EA
:101F40000422C4F8702E90F8CC32DA074CD415F085
:101F5000C3FA52F057F83C2151F008FE04F56363D0
:101F600000221A6000212E482E4E00F0CBFE2C4895
:101F700012F0F6FD01462C4880F098FE2B4B1B68B2
:101F8000586D036801211B689847254812F068F9CD
:101F90000121D4F8480E7DF097FE52F033F88046C8
:101FA000D4F8240E03681B68984796F8C82E01469B
:101FB000404651F071FAA6F5805006F053FE4DF000
:101FC000A5FE4DF057FA00233B708EF061FCB4F88B
:101FD0001A3E06F5005623F4087343F02003C6F8B2
:101FE000AC0AA4F81A3E83E79B07BBD431460C48E1
:101FF00004F0FEFF0E487CF09BFEDFED0E7A20EE33
:10200000270A04F5636383ED000AABE700256FE759
:10201000102B0020184B0020B47B0020957B002063
:10202000182B0020183B002004530020F0790020DA
:10203000946500200AD7233C2DE9F043374DD5F8AD
:10204000483E93F8713087B0002B64D052B101291B
:1020500008D195F9183E002B04DB0024204607B078
:10206000BDE8F08383F080FB04460028F5D015F02E
:10207000C5FC07461EF0BCF88046384614F00EFD3D
:10208000D8B198F92430022B17D100264FF000095F
:10209000F1B203AA38460191CDF80C90CDF810901A
:1020A000CDF8149015F07CF8019918B103AA4046B8
:1020B0001DF0E8FC0136032EEAD1194BD5F8240EA9
:1020C000984224D10AF0D4FE1648012106F0DAFF26
:1020D0001448012106F014FF0021D5F8480E7DF0C8
:1020E000F3FD11482CF074FF51F08CFF002151F0EA
:1020F0000FF80E4B1B68586D036800211B6898474A
:1021000095F81A3E6FF3451385F81A3EA6E7184670
:102110000AF0B2FED8E70124A0E700BF184B002068
:1021200040720020182B0020A0700020F0790020C1
:10213000014868F03BBF00BF2849002008B500F502
:10214000005090F8183EC3F340128A420BD061F35E
:10215000451380F8183E31B151F054FFBDE80840F6
:102160000F2151F003BD08BD70B500F500560546BE
:10217000D6F8583E8B420C4612D0012911D00229C4
:1021800016D059B951F03EFF1B2151F0EFFC0D4A1A
:1021900005F530500621083054F0F0FDC6F8584ED1
:1021A00070BD51F02FFF1A2151F0E0FC064AEFE715
:1021B000012100F0A7FD51F025FF1D2151F0D6FCB3
:1021C000024AE5E758C40C086DC40C0868C40C0842
:1021D00010B500F500520C4692F83D3E03F00101A7
:1021E000A14209D064F3000382F83D3EDB0704D42A
:1021F00006F03AF9024B9C7210BD06F0FDFAF9E7C1
:10220000957B002000F5005090F83D3E61F34103BE
:1022100080F83D3E014B1973704700BF957B00204D
:1022200010B504465DF0FCF920215EF0B5F904F527
:102230000053003893F81A2E18BF012060F3820271
:1022400083F81A2E10BD000070B52DED028B00F53D
:1022500000550446D5F8483E93F87130002B73D0F2
:1022600095F9183E002B6FDB00F5804393F8B434EA
:10227000002B69D1D5F8240E03685B6998470028C4
:1022800062D1334BD3F8240E03681B6898470B28A0
:102290005AD004F540569FED2F7AD6F89C3AD3EDEC
:1022A000957AF0EEE77AF4EEC77AF1EE10FA4BD5B4
:1022B000D5F8480E383054F0DBF90346DFED260A36
:1022C00093ED000A9A20B7EE001A26F075FFB5EEDE
:1022D000C00AF1EE10FA37DD04F569503C307CF0AD
:1022E00033FDDFED1E7AB0EEC00AB4EEE70AF1EE80
:1022F00010FA29D504F58054D6F8980AD4F80C348D
:1023000007EE903A0368DB6FB8EEE78A984738EE3D
:10231000400ADFED137AB0EEC00AB4EEE70AF1EE40
:1023200010FA11D5D4F8103440F2E63203F2F31368
:10233000934209D8BDEC028BD5F8480E9FED090AEF
:10234000BDE870407FF084B9BDEC028B70BD00BF6A
:10235000184B002000000034000000000000704214
:102360000000FA430AD7233C08B500F50050D0F826
:10237000480E03689B689847F6EE007A20EE270A1D
:10238000B5EEC00AF1EE10FA48BF9FED010A08BD94
:102390000000000038B52DED028B00F540550446D5
:1023A000D5F8983ADFED110A93ED2B0A04F50054A5
:1023B0005D20B7EE001A26F0FFFED4F8480ED5F8DF
:1023C0009C5A03689B68B0EE408A984738EE400AF2
:1023D000BDEC028BDFED067A05F5A075284620EEF0
:1023E000270ABDE838406FF071B800BF0000000058
:1023F00000007A4400F5805000F58B6300F26440E1
:10240000D3ED005AD2ED007AD0ED006A91ED006A6A
:1024100026EEE77A67EEA57AA6EE257AE6EE267A2C
:1024200081ED007AC2ED007A7047000000F500539C
:10243000B3F9BC3843B900F58050B0F93E0F00281D
:10244000B8BF404280B2704783EAE370A0EBE3700C
:10245000F8E7000030B52DED028B00F5005383B096
:1024600093F83D1E11F00101044605D09FED2C0AA2
:1024700003B0BDEC028B30BD93F8193E01915B07B0
:10248000F4D5DFED288ADFED260AB0EE681A3A208F
:1024900026F092FE04F580550199B5F9460F4FF4E8
:1024A000C872B0EE408A26F0C5FEA5F8460F204659
:1024B00011F0FAFFB5F9463F07EE900AB8EEE77A59
:1024C00007EE903AF8EEE77A77EE676AB4EEE68ABE
:1024D000F1EE10FA0DD52046FFF7A8FF07EE900A9F
:1024E00038EE668AB8EEE70A20EE088A88EE260AF9
:1024F000BEE777EE877AB4EEE78AF1EE10FAB5DD43
:10250000B5F93E3F00EE103A38EE678AB8EEC00AE1
:1025100078EEE77A20EE088A88EE270AA8E700BF5F
:102520000000000000007A4400207047002070473F
:102530007047000000F50050D0F8240E03681B68B7
:1025400018470000034808603621117008221A60FD
:10255000704700BF5CCA0C0810B500F500500C466F
:10256000D0F8240E03685B6D984707EE900A9FED44
:10257000057AF8EE677A012067EE877AC4ED007A73
:1025800010BD00BF0AD7233C10B500F500500C4623
:10259000D0F8240E03681B6D984707EE900A9FED54
:1025A000057AF8EEE77A012067EE877AC4ED007AC3
:1025B00010BD00BF0AD7233C10B500F500500C46F3
:1025C000D0F8240E03689B6D9847DFED047A20EE67
:1025D000270A012084ED000A10BD00BF0AD7233C62
:1025E00000F54050D0F8980A03685B6C184700006B
:1025F00070F0A8B962F048B983F078B967F076BF97
:1026000013F002BA65F0CCBF5FF050B84DF0CABA13
:1026100024F080BD50F0E6BE18F0D6BF5FF0DEBB00
:102620005CF0A0BC5AF0DAB911F0CCBB12F0E8B8FB
:1026300006F0E0BE13F084B905F06CBF05F0C2BC33
:1026400005F0D4BB43F058BA17F0F0BD63F07CBD81
:102650000FF0FCB8FFF7F8BD11F0F0BC80F036BF0A
:1026600011F084BF03F09EBB11F072BC11F0F0BBFF
:102670005CF056BF20F05CBF02F0ECBD5FF0BEBB6B
:1026800006F070BE04F0D6BC06F0B6BF05F052BC32
:1026900006F0EEBB11F026BB25F004B810B500F52E
:1026A000405086B0D0F8980A0C4600F17C0170309A
:1026B00029F088FF06AA8DED030ACDED040A8DED01
:1026C000051A12E907006B4683E8070084E8070053
:1026D000012006B010BD000006F00CB909F048BF9B
:1026E0000AF0FEB80AF092B838B51A4B036000F54C
:1026F00000530446D3F8AC0D174AC3F8082C08B1B0
:102700001AF036FA154B236004F5805393F8B02C79
:1027100042B9D3F8AC5C2DB1284623F043FB2846E0
:102720001AF020FA04F58950103075F0BBFB04F55F
:10273000815018305FF0F4F9094BC4F8303904F6D1
:10274000142053F0E3FC04F5196053F0DFFC20463D
:1027500038BD00BFA4CE0C0814DE0D08C4BD0D08A2
:10276000107C0D08414B70B5044640F8043B62F004
:10277000ABF904F1100018F0E9FA04F160004CF034
:10278000EDFF04F584701EF083FF04F5906017F0F0
:102790000BF904F5BD601CF0FFFE04F5136024F096
:1027A00071FB04F6B84061F04FFF04F6885047F023
:1027B000BBFE04F5815018305FF09AF904F58350A0
:1027C000143019F031F804F58950103075F056FBCB
:1027D00004F58A500C304DF031FB04F5805604F5B9
:1027E0008D5063F057FB0025214A86F8B05104F55F
:1027F0008D53103304F58E50136043F027F804F521
:1028000090502946103013F0E3FD04F5BB50103012
:102810006EF0F2FE04F5BB501C306FF0D5FB04F5F2
:10282000DA5072F047FE04F5E250183074F002FFFF
:1028300004F5E5501C3013F0D3FA04F5F0501030D5
:1028400068F058FA86F8C85E0A4D04F5F75075F03E
:10285000D7FE2B6813B108488DF0ECFF20460749DE
:1028600046F0E2FC2C60204670BD00BFC4BD0D08E0
:10287000FC8A0020787C00207CC40C0808BD0D0870
:1028800010B511F09BFD5CF0CBFE0368BDE8104075
:102890005B681847FFF7F4BF10B5044606F048FB25
:1028A000204612F087F9204604F06EF92046BDE874
:1028B000104004F0D9BA0000FFF7EEBF70B500F584
:1028C000395534350446284618F05CF91DF090FC63
:1028D00090F9213093B390F840337BB304F5005363
:1028E00004F5BD66D3F8480E383053F0C1FE0346F8
:1028F000DFED130A93ED000A9A20B7EE001A26F0D6
:102900005BFC94F91C36012B284608BF86ED0E0AA5
:10291000002117F035FFDFED0B7A04F5046494ED28
:10292000287A20EE270ADFED087AA7EE270A30463C
:1029300084ED280ABDE870401DF032B970BD00BFBB
:1029400000000000CDCCCC3D6666663FFFF7B6BF09
:1029500010B50121044612F069F960B1114BD3F8AA
:10296000240E03689B6A984728B9204602F050FB62
:10297000204602F085FB4FF40011204612F056F974
:1029800018B125F0D7FE24F09DF94FF480212046A0
:1029900012F04CF928B125F0CDFEBDE8104024F02E
:1029A0009FB810BD184B0020FFF7D2BF38B50221E9
:1029B000044612F03BF970B10121204612F036F9BD
:1029C00048B94D4BD3F8240E03689B6A984710B959
:1029D000204602F01DFB0121204612F027F910B914
:1029E000204602F04DFB0121204612F01FF910B9DC
:1029F000204602F09FFB4FF40031204612F016F9FA
:102A000030B104F50053D3F8480E0368DB6B9847E8
:102A10004021204612F00AF968B104F527550C351B
:102A200028464FF0C1FC04F5805393F9383013B1B8
:102A300028464FF019FE4FF48061204612F0F6F858
:102A400020B104F527500C304FF046FD20212046E0
:102A500012F0ECF868B104F50055D5F8240E0368BF
:102A60001B69984758B304F54053D3F89C0A79F092
:102A7000D3FA8021204612F0D9F868B325F05AFE27
:102A800024F052F81021204612F0D0F850B104F58D
:102A90004053D3F8980A76F0CDFA04F5005034305C
:102AA00080F086FD4FF6FF71204612F0BFF810B39C
:102AB00004F522502030BDE8384082F025BF204682
:102AC0000CF0A6FE0028CED1D5F8240E03685B6971
:102AD00098470028C7D0CCE74FF48021204612F059
:102AE000A5F80028CAD14FF40021204612F09EF824
:102AF0000028C3D1C6E738BD184B0020FFF756BFEA
:102B000010B50121044612F091F810B1204602F0F0
:102B100011FB8021204612F089F858B14FF4802132
:102B2000204612F083F828B925F004FEBDE81040D5
:102B300023F0D6BF10BD0000FFF7E2BF10B504467A
:102B400005F0A8FF204605F0F9FD204605F0E8FF56
:102B5000204606F001F9204612F078FF2046BDE835
:102B6000104003F0EDBF0000FFF7E8BF70B54FF66F
:102B7000FF71044612F05AF804F5005528B1D5F853
:102B8000182E0721204602F007FBD5F8483E93F89F
:102B900071308BB92046FFF743FBD5F8480E95F806
:102BA000FC10026804F58053966993F85A2FB047D9
:102BB000D5F8480E7EF018FD5DF082FF204612F039
:102BC00037FF95F8183E034ADB43C3F3C013537134
:102BD00070BD00BF957B0020FFF7C8BF2DE9F04115
:102BE00000F5805600F5005406F58B6304F65C682A
:102BF0001B68C8F8003006F2644304F566671B687A
:102C00003B600546D6F8140400F58C40503026F0A1
:102C1000A7FA04F66863C4F8640ED8F800201A60B6
:102C200004F66C643B6823604FF6FF71284611F090
:102C3000FDFF38B1D6F8142428460921BDE8F0413B
:102C400002F080BABDE8F08110B500F50053D3F86A
:102C5000584E002C55D093F8192ED10751D56FF34B
:102C6000000283F8192ED3F8C029D3F8BC19B2F9A1
:102C70000820012C06EE902AB1F908400BBF03F69C
:102C80005C6203F66862D2ED007AD2ED007A0CBF86
:102C900003F5666203F66C62D2ED005A0CBFF8EEE3
:102CA000E66AF8EEE66A07EE104A25EEE66AB8EE46
:102CB000C77A00F58050A7EE276A00F58B6200F214
:102CC000644067EEA67AD2ED006AE7EE257A90EDD1
:102CD000007A27EE877AA6EE267ABDEEC77A17EE3F
:102CE000104A0C8192ED007AD3F8C03967EE877AEA
:102CF00090ED007AE6EE477AFDEEE77A17EE902A3D
:102D00001A8110BD38B505462DED028B00F5005433
:102D100071B1284611F0B4F9D4F8643E1B1A03F2DD
:102D2000F31340F2E63293420CD8BDEC028B38BD6F
:102D3000D4F8583E022BF8D111F084F9B0F57A7F1F
:102D4000E7D2F2E7C4F8640E00F58C4050306423FB
:102D500090FBF3F308EE103ADFED0B7AB8EEC88A79
:102D600028EE278AB0EE480AB2F0E8FE04F668635F
:102D700083ED000AB0EE480AB3F030F804F66C6454
:102D800084ED000AD1E700BF35FA8E3C00F5905083
:102D90000121103014F044B8FFF7F8BF10B5044615
:102DA00011F088FB1021204611F040FF70B1204641
:102DB00002F07CF84FF40011204611F037FF28B9DB
:102DC00025F0B8FCBDE8104023F07CBF10BD00002A
:102DD000FFF7E4BF70B50446254606F047FB214BDC
:102DE00045F83C3B204B2465C4E915341F4BC4E92E
:102DF00017341F4B636604F1780019F06BFB04F184
:102E0000940019F067FB04F1B00019F063FB4FF672
:102E1000FF76184BC4F8C430A4F8C86004F1CC00A5
:102E200019F058FB144B15491D60284646F0FCF973
:102E3000A4F87060A4F88C6004F59A7019F04AFB4D
:102E400004F5A87019F046FB04F5B67019F042FBC2
:102E5000002384F88031C4F8A431012384F8A83118
:102E6000204670BD1C220D08DD260108E126010860
:102E7000E52601080000FFFF647B0020D4880D08D0
:102E800010B5044606F0F2FA0A4B23600123A3872B
:102E900004F1400019F01EFB04F1500019F01AFB78
:102EA00004F1600019F016FB04F1700019F012FB38
:102EB000204610BDA02A0D082DE9F0432DED028B10
:102EC000044685B0FFF74EFC894B236004F5FB50A8
:102ED000183002F037FB04F5FA5104F5275014318D
:102EE0000C3050F049F804F5005504F5FA53083356
:102EF000C5F8D43A04F52B50062385F8D83A283083
:102F000053F05AFB04F52C500C3053F055FB04F5EC
:102F10002E5604F52C50143634305EF019FA304633
:102F200081F070FA0DF10808724BC5F8943B301D22
:102F3000012341468DF8083004F5305646F026FF4F
:102F400004F532576C4BC5F8083C28360C37304630
:102F5000143657F0FBFDBE42F9D10723C5F8B03D4A
:102F60000023A5F8B43D4FF4CB7019F0FFFDC5F870
:102F7000AC0D04F5365038308AF034FB04F5375088
:102F80003C308AF02FFB5D4A13681BB904F53053BF
:102F90000833136004F59847594BC5F8083C1437BB
:102FA00004F53850C5F8247E29307FF001F9B7EEDA
:102FB000008A05F65C6383ED008A524B039305F6A5
:102FC0006865514B85ED008A0294009304F53950F1
:102FD00098E80C004FF40071343017F0A5FA04F5AE
:102FE0004C50343083F02EFD04F56950B0EE480AA1
:102FF000043053F04FFB04F56950B0EE480A1C3022
:1030000053F0E2FA04F5695004F540552C3019F0FC
:1030100061FA05F67C2300261E605E609E6005F660
:10302000882304F56A581E605E609E6004F5905324
:103030001033C5F8943A002385F8B13A08F15400EA
:1030400019F048FA04F56C5019F044FA08F1380800
:103050004FF400432D49C5F8243B404646F0E4F8C0
:103060002B4B04F56C502830C3F800805EF0A0FEB6
:1030700004F56E50143069F0F1FD04F56F500C301A
:1030800046F0AAFF04F56F58224BC5F8CC3B08F177
:103090002008FF2385F8F03B85F8F83B1E494046A1
:1030A00046F0C2F81D4B1D6815B11D488DF0C2FBDE
:1030B00004F57050C3F800804DF0F8FF194B1A4822
:1030C000186004F5894224322B464FF0180C9DB24B
:1030D0000CFB05F10133415C0029F8D1134B1D8035
:1030E000134BD3F80080B8F1000F27D01148DDE76B
:1030F000A4CE0C0814C40C0814DE0D086C85002046
:1031000008CF0C08D926010894CE0C08E0410D0820
:10311000407B002054C40C0838090E08848B002022
:1031200090C40C08347C0020480F0D08327C00202D
:10313000EC7B0020B1C40C08CDCC4C3D04F589409B
:103140001FED030A1A60383053F03EFA04F5894047
:1031500004F58045503006F089F95F4BC5F8D0344E
:1031600004F58A40103006F081F904F58E495B4B76
:10317000C5F8103504F58A4009F128094C30FFF7ED
:1031800029FE484606F072F9554BC5F8283709F173
:103190003C0088F009FB534BC5F8643704F59140B7
:1031A000503006F063F9504BC5F8D03804F5924022
:1031B000143006F05BF94D4BC5F8143904F5924014
:1031C00085F85089543006F051F9494BC5F8543907
:1031D00004F59340103006F049F9464BC5F8903994
:1031E00005F6CC1304F593401E605E609E6064306B
:1031F00006F03CF9404BC5F8208A04F59440C5F828
:10320000E4392C3006F032F93C4BC5F82C3A04F581
:103210009440C5F8688A703006F028F9384BC5F834
:10322000703A04F59540383006F020F9354BC5F872
:10323000B83A04F59540743006F018F9324BC5F8E9
:10324000F43A05F66C3304F597401E605E60083072
:10325000FFF716FE384606F009F92C4BC5F8143C6A
:1032600004F5984050300EF033FC04F5994070306E
:1032700006F0FCF8264BC5F8F03C04F59A40A5F89A
:103280002C8D403006F0F2F8224BC5F87C8D04F509
:103290009B40C5F8403D0430FFF7F2FD1E4BC5F8DA
:1032A000843D04F59C40012385F80D3E14300FF059
:1032B00035FD04F59D400C3006F0D8F8174BC5F8E5
:1032C0008C3E05F6CC6520462E606E6005B0BDECE8
:1032D000028BBDE8F08300BF901E0D082C1F0D0867
:1032E000B8220D0840230D08E4230D087C240D08A6
:1032F00014250D08A4250D0848260D08E0260D0804
:1033000008280D0898280D0830290D08D02B0D0825
:10331000A42F0D0880270D08342B0D0840300D0810
:1033200038B5054B1C6823680A461D68034B0146E7
:103330002046A847002038BDF0790020182B002037
:1033400010B58AF011FD064C064B18602046FFF7B9
:10335000B3FD2046044A0549BDE81040B2F0C8BAA2
:10336000182B0020F0790020E8E10020E926010870
:1033700001207047FA207047014B93F80A0F7047FD
:10338000183B0020034BD3F8580E431E58425841B7
:10339000704700BF184B0020034BD3F8580E831E14
:1033A00058425841704700BF184B0020034BD3F8D8
:1033B000480E08B17CF05CBD01487047184B0020F6
:1033C000E8CE0C0870B541698269474D41F4E0537D
:1033D000436142F4E0538361C369044643F4E0501F
:1033E000E06195F8190E400710D541F48E3142F492
:1033F0008E326161A26195F8192E510706D595F8B4
:103400003D2ED2075CBF43F48E33E361636943F41E
:10341000C0436361D5F8240E03681B6898470238DF
:10342000192816D8DFE800F0570D0D0D0D0D150DFC
:103430001515155715570D0D0D0D570D571515155C
:10344000150DD4E9062342F4C042A26143F4C043FF
:10345000E361264B1E6846B11921304647F03EF91C
:1034600018B1636943F48073636195F8DC3ADB0754
:103470000DD5A36943F48073A36146B11921304689
:1034800047F064F918B1E36943F48073E361184BC2
:1034900093F89834013B012B0BD8D4E9052343F46E
:1034A0008003A361E36942F4800243F48003626114
:1034B000E361636943F080436361A36943F0804340
:1034C000A361D5F8483E93F869301BB9E36943F02E
:1034D0008043E36170BDA36943F40053A361E369D2
:1034E00043F40053B4E700BF184B0020407C002099
:1034F000186B002013B54FF4F470CDE9002119F0DA
:103500002BFBDDE9002104465AF0AAFB024B2360A5
:10351000204602B010BD00BF64D10C0808B590F879
:1035200084308B4208D24EF001FE16224FF48021E7
:103530004EF0B2FD002008BD223150F82100FAE71C
:1035400008B590F884308B4208D24EF0EFFD0F2280
:103550004FF480214EF0A0FD002008BD223150F82C
:103560002100FAE7002070477047000003207047F1
:1035700010B5154CD4F8240E03681B68984707282B
:103580001CD8032834BF10231823D4F8482E43F046
:10359000400022B192F871200AB143F0C00040F01F
:1035A000010010BD0B280DD8DFE800F006060C0660
:1035B0000C060C060C0C0C061823E6E71038C3B2F8
:1035C0000B2BEFD91023E0E7184B0020014B93F8A9
:1035D0000C0F7047183B0020034B93F9F0000038A4
:1035E00018BF0120704700BF184B0020014B93F912
:1035F0000E0F7047183B0020704700007047000016
:1036000038B5C5780B46352D044628BF35253522FB
:1036100000211846B4F0A2FE2A4604F10C01BDE8D0
:103620003840B4F073BE00001FB5184C94F8021E69
:1036300004F6BC4012F0BEFB78B194F8021E04F60A
:10364000BC4012F0B9FB40B194F8021E04F6BC4035
:1036500004B0BDE8104012F0B1BB00230193029307
:10366000039314F0CBF901A913F006FA20B101A8D5
:1036700029F0D2FB04B010BD1FF09AFF90F8D032B1
:10368000B02202FB030090ED330AF3E7183B002061
:1036900008B50D4BD3F8480EA8B1383052F0E8FF0A
:1036A000034693ED000ADFED090A9A20B7EE001AEF
:1036B00025F082FDDFED067A20EE270ABDEEC00A76
:1036C00010EE103A18B208BD184B002000000000A0
:1036D0000000C8422DE9F04FDFF8DC80354F8DB097
:1036E0000446042508F5005617F8019BB8F9643F15
:1036F00009F1FF3A43FA0AF3D90744D5207C54F084
:10370000DBFA8346207C55F0F1F900F121039B455B
:1037100005D2207C0DB0BDE8F04F53F091BDBAF159
:10372000030F30D8DFE80AF002363B40D6F8980A9B
:1037300003689B68984700F19003D3F800B0D3F872
:1037400004A0D3F80CC018695969D3F818E0DA69F5
:103750001B6ACDF82530CDF8292021236222CDE93E
:10376000003207900891207CCDF80CB0192303AAF1
:10377000C221CDF810A0CDF814E0CDF818C08DF816
:10378000249054F013FB013D15F0FF05ACD10DB0B2
:10379000BDE8F08FD6F8980A0368DB68CAE7D6F868
:1037A000980A03681B69C5E7D6F89C3A03F5E873E5
:1037B000C3E700BF4CD20C08183B002007B50190AE
:1037C00082F0B0F828B1019903B05DF804EB82F003
:1037D0006BB803B05DF804FB014808F019BB00BFEB
:1037E0006470002037B504460D4606480192114624
:1037F00082F088FC019A2946204603B0BDE830409B
:1038000058F0CABFD853002010B588B0044656F00F
:1038100017FD0C4BD3F8480E38B90B4A0621204649
:1038200008B0BDE8104056F0FFBB69461E227CF090
:1038300023FB064A6B460621204656F0F5FB08B0EE
:1038400010BD00BF184B0020E8CE0C089A1C0D08D4
:10385000034A92F8B839013382F8B83955F0E0BD1F
:10386000184B002007B50846019118F027FF38B122
:103870000448019902F0F4FF002003B05DF804FB56
:103880000420FAE7F4790020014803F0B1BB00BF3F
:10389000182B0020014803F035BB00BF182B002077
:1038A00070B58B8BCD2B06460C4615D10D4D95F87A
:1038B000891B05F628305EF0B1FA68B195F8891BCE
:1038C00005F628305EF026FB30B9DFED070A94EDEF
:1038D000020A064802F0A4FF21463046BDE87040C7
:1038E00055F0D8BD185B002000000000F4790020DE
:1038F00010B5074B93F9002C40F6CD3440F6CD13AC
:10390000002A08BF1C4655F043FD204310BD00BFF0
:10391000185B002000B589B0002302930393049341
:1039200005930693079314F069F802A913F0A4F81D
:10393000B0B114F063F813F075F805A88DED050A21
:10394000CDED060A8DED071A29F066FAF1EE047A3C
:1039500020EE270AFCEEC07ACDED017A9DF8040036
:1039600009B05DF804FB000010B52DED028B84B0AA
:1039700014F044F80446684618F0ACFD6946204649
:1039800013F030F8114B93F8190E10F0200019D0F5
:1039900003F58053DDED017AD3F89C3A986893EDF6
:1039A000928AF8EEE78A7BF0C3F938EE408A9FED01
:1039B000080A38EE288A28EE008ABDEEC88A18EE7A
:1039C000103A18B204B0BDEC028B10BD184B0020A9
:1039D0000AD7233C10B5044619F0C4F8204610BDA0
:1039E00010B50C4C94F9183E002B0FDBD4F8240EC4
:1039F00003685B6C984758B9D4F8240E03681B6CB5
:103A0000984700280CBF0220032010BD0120FCE7CE
:103A10000420FAE7184B002008B5134B93F8190E51
:103A200010F020001ED0D3F8240E03685B6D984779
:103A300007EE900AB8EE677ADFED0C7A27EE277A68
:103A4000DFED0B7AB4EEE77AF1EE10FA58BFB0EE84
:103A5000677AF2EE046AC7EE267AFCEEE77A17EE92
:103A6000903A98B208BD00BF184B00200AD7233CFB
:103A700000FF7F4738B5F7EE000A91ED050A0446CE
:103A80000D4625F081FA28B121460548BDE83840A9
:103A900003F0E2BA29462046BDE8384058F056B94E
:103AA000182B002008B5094B93F8190E10F02000D0
:103AB0000AD0D3F8240E03681B6D984725F050FBFD
:103AC000C82390FBF3F0C0B208BD00BF184B002024
:103AD00000B589B0002302930393049313F08EFF83
:103AE00002A912F0C9FFD8B113F088FF12F09AFFB3
:103AF000F0EE607AF1EE400AB1EE670AB2F03AFAFF
:103B0000DFED097A20EE270A25F0ACFAF6EE007A0E
:103B100020EE270AFCEEC07ACDED017A9DF8040074
:103B200009B05DF804FB00BFE02E6542044B187835
:103B300020B9044B93F81A0EC0F38010704700BFF1
:103B40003C7B0020184B002007B5124B93F8190E50
:103B500010F020001AD003F58053D3F89C0A00F52A
:103B6000167029F059F9DFED0C7A20EE270ADFED07
:103B70000B7AB4EEE70AF1EE10FA58BFB0EE670A1E
:103B8000FCEEC07ACDED017A9DF8040003B05DF83B
:103B900004FB00BF184B0020CDCC4C3D00007F4300
:103BA000094B93F8312362B9A3F5805393F83D2E66
:103BB000920606D193F9183E002BACBF04200320D7
:103BC00070470520704700BF185B002008B5074B01
:103BD00093F9583F032B03D0BDE8084056F03CBA98
:103BE000034A022156F020FA042008BD183B0020A9
:103BF00040CF0C08094BD3F8F420920701D455F0BC
:103C0000B1B903F5805303F5276393ED000ADFEDA7
:103C1000047AB8EEC00A20EE270A7047184B00203D
:103C20000AD7233C10B594B0044603A818F052FC00
:103C30001C4BD3F8240E036803A9DB6C984778B3B8
:103C4000002103A818F010FD50B3247C8CF020FE56
:103C5000059BDDED047A0893069B09930023F8EE9B
:103C6000E77A9FED117A0B930C930D930E930F93BC
:103C70001093119312934FF6F853ADF84C30002384
:103C8000962267EE877A8DF84E303323CDE90032E5
:103C9000079007AA57212046CDED0A7A54F086F8FE
:103CA00014B010BD184B00200AD7233C30B52DEDC1
:103CB0000A8B774C0546D4F8240E036899B05B6AEA
:103CC000984700285BD004F50054D4F8683A062BD6
:103CD00000F2C980DFE803F00404045788AB530006
:103CE0006C489FED6D8A0BF005F89FED6C0A01683A
:103CF000426883680D930BA80B910C9228F08EFC00
:103D0000F0EE489AB0EE40CAF0EE60BAB0EE419ADA
:103D1000B0EE48AAF0EE488AF0EE48AAB0EE48BAF3
:103D200040F6F8542D7C8CF0B3FD002315931693C8
:103D300001238C228DF85E303323CDE900320B90C5
:103D4000B1EE499AF1EE688AB1EE488A0BAA552184
:103D500028468DED0CCACDED0DBA8DED0E9A8DED88
:103D60000FBACDED10AACDED118A8DED12AACDEDD1
:103D7000139A8DED148AADF85C4054F017F819B021
:103D8000BDEC0A8B30BD43480AF0B4FF9FED430AF7
:103D90000168426883680D930BA80B910C9228F080
:103DA0003DFC3C48F0EE60BAB0EE419AB0EE40CA3D
:103DB0000AF0A4FF9FED390A28F030FC3548B0EE38
:103DC00040BAF0EE60AAF0EE418A0AF09BFF9FED48
:103DD000330A28F023FC4FF44064B0EE40AAF0EE22
:103DE000609AB0EE418A9DE72A489FED2B9A0AF02F
:103DF00085FF9FED2A0A28F011FC2648B0EE40BA54
:103E0000F0EE60AAF0EE418A0AF07CFF9FED230AF3
:103E100028F004FCF0EE49BAB0EE40AAF0EE609A49
:103E2000B0EE418AB0EE49CA40F607447AE7194835
:103E3000DFED198A0AF066FF9FED180A28F0EEFB05
:103E4000F0EE68AAB0EE40AAF0EE609AB0EE418AB9
:103E5000B0EE68BAB0EE689AF0EE68BAB0EE68CA32
:103E600040F63F445EE79FED0C8A0024F0EE489A4E
:103E7000B0EE48AAF0EE488AF0EE48AAB0EE48BA92
:103E8000B0EE489AF0EE48BAB0EE48CA4AE700BF32
:103E9000184B002044750020000000000AD7233C86
:103EA0002DE9F04F2DED028B194B047CD3F8983A95
:103EB0008DB0D3F854809F6DDE6D1D6E93ED198A21
:103EC000D3F868B0D3F86CA0D3F8AC908CF0E0FCD9
:103ED00000238DF82C3016222523CDE900320290E4
:103EE00002AA532120468DED078ACDF820B0CDF8E7
:103EF00024A0CDF82890CDF80C800497059606955F
:103F000053F054FF0DB0BDEC028BBDE8F08F00BF45
:103F1000185B00202DE9F0412DED068B3E4D95F804
:103F2000193E99068CB0044671D505F580579FED72
:103F30003B0AD7F8980ADFED3A8A3C3028F06EFB4E
:103F40008DED041A21EE281AD5F8246ECDED030A62
:103F5000BDEEC11A8DED020A11EE103A1DB23368A2
:103F600094F810801B6D304620EEA89A60EE289AD7
:103F7000984707EE900AF8EEE77A304667EEA87A9F
:103F8000FDEEE77A17EE903A1CB233685B6D984706
:103F900007EE900AB8EE678ADFED227AD7F89C3AEE
:103FA00028EE288A986893ED92AAB4EEE78AF1EE9B
:103FB00010FA58BFB0EE678A7AF0BAFE336830461E
:103FC0009B6DF0EE40AA9847BCEEC88A00233AEEFB
:103FD0006AAA089318EE103AB7222AEE28AA20EE11
:103FE000280AADF82C301A23CDE900323E2105AA6B
:103FF0004046CDED059A8DED069A8DED07AA8DED23
:10400000090AADF82850ADF82A4053F0CFFE0CB0A5
:10401000BDEC068BBDE8F081184B00209F0CB3452A
:104020000AD7233C00FF7F4770B58A7A4B7A43EA70
:104030000223CA7A43EA02439D2B06460C461BD153
:10404000104D95F8891B05F628305DF0E7FE98B114
:1040500095F8891B05F628305DF05CFF60B9D4ED5A
:10406000057A9FED090ADFED090A0948F8EEE77ABB
:1040700027EE800A02F0D4FB21463046BDE87040AE
:1040800055F0E6B8185B00200AD7233C000000007A
:10409000F479002008B590F8E63153B9C06B036895
:1040A0001B6A9847B0F5005F28BF4FF4005080B2FC
:1040B00008BD0020FCE70000034BD3F8480E08B110
:1040C00090F87000704700BF184B002008B5034BF4
:1040D000D3F8240E03681B68984708BD184B0020CE
:1040E000024B93F8190EC0F340107047184B002094
:1040F00070B52C4E2DED028B0546D6F8240E91EDB1
:10410000018A036886B05B6A0C46984750B9BDEED9
:10411000C88A18EE103ADB0704D4022006B0BDECC2
:10412000028B70BDD4E9040126F066F90028F4D0B2
:1041300002A818F0CFF902AA2146284658F03AFD05
:104140000028EAD0184902A818F0C4FA034600284B
:10415000E3D1DFED160A00900246B0EE600A144883
:1041600002A90AF063FBD8B1D6F8240E03685B6A93
:104170009847044608B10020D0E70E4802220421E7
:1041800005F0DAFC60B1DFED090A09480094234626
:10419000B0EE600A224602A90AF048FB0028EAD1E4
:1041A0000420BBE7184B00208465002000000000BD
:1041B00044750020182B002010B5D1ED007AFCEEDC
:1041C000E77A044617EE903A13F0FF030FD10F4B36
:1041D000D3F8240E03681B6F984708B1002010BD68
:1041E0000B4A2046062155F01FFF0420F7E7012B5C
:1041F00009D1064BD3F8240E03685B6F984700285B
:10420000ECD1044AEDE70220E9E700BF184B00209B
:1042100064CF0C0874CF0C088A8BC02A82B01DD0E2
:10422000C12A1ED0202A1FD1D1ED007AF5EEC07A26
:10423000F1EE10FA1BDD9FED0F7AF4EEC77AF1EE86
:1042400010FA14D8FCEEE77A0B4ACDED017A9DF80E
:104250000430A2F8C238002002B0704702B0FFF765
:1042600047BF02B0FFF7A8BF02B058F09BBD0320C4
:10427000F2E700BF00007F43184B002010B52DED82
:10428000028B8CB00023044603930493059313F030
:10429000B5FB03A912F0F0FB50B313F0AFFB12F023
:1042A000C1FBF0EE607A8DED060ACDED070AF1EE66
:1042B000400AB1EE670A247C8DED081AB1F05AFE6F
:1042C00006A8B0EE408A28F0A7FDDFED0B7A089B28
:1042D0000B93012228EE278A0C23CDE90032A82176
:1042E00009AA20468DED098A8DED0A0A53F05EFD7C
:1042F0000CB0BDEC028B10BDE02E6542272938B50D
:10430000044611D008D819290CD0242920D02046E1
:10431000BDE8384058F0F0BF372903D0A1F1390388
:10432000012BF4D801200EE0FFF7B4FE0546207CF7
:1043300054F0DCFB00F112039D42217C04D20846BC
:1043400052F07EFF002038BD09484CF08DF9E9E7B6
:10435000FFF7A0FE0546207C54F0C8FB00F10C03DB
:104360009D4201D2207CEBE72046FFF787FFD9E78B
:104370001867002070B52DED028B8B8BC12B90B090
:1043800004460E4600F0018260D8542B00F0B58040
:1043900017D8162B09D8102B0AD9113B052B07D893
:1043A000DFE803F0C60606CCCFAB202B00F0CC80B4
:1043B0003146204610B0BDEC028BBDE870405AF08B
:1043C00017BBB22B00F0E18039D8552B00F0B98033
:1043D000732BEDD1D1ED007AF5EEC07AF1EE10FA43
:1043E000C0F2D1809FEDBB7AF4EEC77AF1EE10FAFD
:1043F00000F2C98091ED030A9FEDB78AF0EEC07A12
:10440000F4EEC87AF1EE10FA40F1B680D6ED037AF8
:10441000D6ED010A96ED000AB048F4EEC87AD6ED62
:10442000027AFDEEE77AF1EE10FACDED037A9DF90E
:104430000C10ACBF0122002202F072F976E0BD2B15
:10444000B6D10221A64806F01DFC6EE04AF21142E8
:10445000934200F00C812DD8B3F5967F00F0BA801E
:1044600040F6D812934200F0F280D12BA0D1D1EDCA
:10447000017AFCEEE77ACDED037AD1ED007AFCEE1D
:10448000E77ACDED047AD1ED047A9DF81020FCEEA8
:10449000E77ACDED057A9DF814300093D1ED030A4B
:1044A00091ED020A9DF80C3001468E480FF080FB1A
:1044B0000446BBE04AF21342934200F025814AF2DF
:1044C0006862934200F09B804AF2124293427FF46A
:1044D0006FAF854D95F83D4E14F0010426D1D5F807
:1044E000483E93F87130002B40F0D68001221146EF
:1044F00005F69430FDF7ECFC98E0D6ED027A9FEDDE
:10450000767A96ED060A784BF0EEE77AF4EEC77A03
:10451000DFED767AD3F8240EF1EE10FA20EE270ABA
:104520004CBF0121002110F0B3FE60B300247DE0F8
:10453000022205216B4805F0FFFAF6E70222062168
:10454000F8E702220921F5E7D1ED007AF5EEC07A0D
:10455000F1EE10FA17DD9FED667AF4EEC77AF1EE10
:1045600010FA10D8FCEEE77A5F4ACDED037A9DF899
:104570000C30A2F8C238D9E7F7EE000A24F004FDA7
:1045800000287FF443AF042450E091ED010AB5EE1A
:10459000C00AF1EE10FAF6DD9FED547A524BD1EDE0
:1045A000007AD3F8240E20EE070A9FED527A0368B2
:1045B000F4EEC77AF1EE10FA02DD5B6E9847B4E7CD
:1045C0009FED4D7AF4EEC77AF1EE10FACCBF1B6E78
:1045D000DB6DF3E743480222032105F0ADFA002822
:1045E000D1D040480121FDF7A9FD444890F8883515
:1045F000012B9BD000F5B1602AF028FF96E74048D8
:1046000081F0E6F80028BED0D6ED017AFCEEE77A1C
:10461000CDED037A9DF80C40012C0CD0022C10D06B
:10462000002CB0D1304B002283F8AC28204610B0CB
:10463000BDEC028B70BD96ED020A314881F008F99D
:1046400074E796ED030A2E4881F016F96EE7D1ED76
:10465000017A2C48FCEEE77ACDED037A9DF80C3018
:10466000012B0CBF0021012169F09AFF5EE71E4873
:1046700090F83D3EDB073FF559AF02220521A0F53A
:10468000005005F059FA00287FF450AF022211467D
:10469000144805F051FA49E795F9183E002B4FF000
:1046A000020212DA0F48052105F046FA00283FF40D
:1046B0003DAF96ED000ADFED0D7AD5F8240E20EE21
:1046C000270A012110F0E4FDB0E70921054805F0B3
:1046D00033FAABE70000B44300000034F479002063
:1046E00064700020182B0020184B00200000C842E6
:1046F00000007F439A9939403333F33F186B002011
:10470000B8530020F8660020254D95F83D4E14F072
:1047100001047FF40BAFD5F8483E93F87130002BBD
:104720003FF404AF95F9183E002B06DA0122082168
:1047300005F69430FDF780FC78E7D1ED007A9FED27
:10474000197AF0EEE77AF4EEC77AF1EE10FA0CD5AA
:1047500015480222112105F0EFF9002896D01348E0
:1047600040F6C41108F0B4FC60E7D5F8240E0368E5
:104770001B68984704283FF4D9AED5F8240E036887
:104780001B6898471428E3D1D0E607A930460322D6
:1047900057F05CFC07A92046FFF70EFD88E600BF36
:1047A000184B002000000034182B0020E873002074
:1047B00008B591ED007AF6EE007AB4EEE77AF1EE04
:1047C00010FA06DD044801220521FDF735FC002022
:1047D00008BD0420FCE700BFAC5600202DE9F047DF
:1047E0002DED028B8A7A4B7A43EA0223CA7A43EA96
:1047F0000243562BA2B005460C4600F0458210D865
:10480000522B00F08480542B00F00C81452B1FD0DC
:104810002146284622B0BDEC028BBDE8F04759F096
:104820008BBE872B12D8852B00F229836D2BEFD1FD
:104830000821894810F0FAF921460246284622B09C
:10484000BDEC028BBDE8F04755F07ABDA62BEEE734
:10485000824ECA79B6F90C3F9A4253D1CA780B2AD4
:1048600028BF0B224FF000080C3114A8CDE91488A2
:10487000CDF85780B3F04AFD9DF85A20B6F90A3FAB
:104880009A423FD1BDF95490C1453BDB8CF000F812
:10489000CDE9000806F5805607469FED710ABDF97F
:1048A0005220D6F8BC194FF47A73284658F0B4FA5F
:1048B0000123CDE900739FED6A0ABDF95020D6F8B7
:1048C000C0194FF47A73284658F0A6FACDE900785B
:1048D0009FED640AD6F8C41943464A46284658F064
:1048E0009BFACDE900789FED5E0ABDF95620D6F817
:1048F000C8194FF47A73284658F08EFA58F0B4FB72
:10490000C0F8A07122B0BDEC028BBDE8F087CD7875
:10491000272D28BF27252722002114A8B3F01EFD2C
:104920002A4604F10C0114A8B3F0F0FC4E4BD3F866
:10493000240E03685B6A98470028E3D09DF8765000
:104940006F06DFD400244FF07E532E06109313948D
:104950001294119428D510A827F040FC434809F080
:10496000A5FD9DED1C0A064600282BD040F287408D
:10497000B7EE001AFFEE000A24F01EFC0C940D9412
:104980000E94EC075CBF199B0C93A8075CBF1A9BA5
:104990000D9369075CBF1B9B0E93344833460CAAEA
:1049A00010A909F08BFDADE7159B1093169B119391
:1049B000179B129310A8189B139327F015FC00283F
:1049C000A0D0CBE7DFED2A0A40F28A40B7EE001A0A
:1049D00024F0F2FBF6EE000AB0EE408A24F0D4FA9E
:1049E000E8B9B6EE000A234BB4EEC08AF1EE10FA35
:1049F000D3F8A03A08DD38EE400A30EE008A93ED95
:104A0000070A28EE000AB9E730EE480AD3ED087A23
:104A100030EE000AF0EEE77A27EEC00AAEE79FED2F
:104A2000140AABE7204614A9FEF7EAFD0E4BD3F8B3
:104A3000240E03685B6A984700283FF463AF9DF833
:104A40008430012B1AD0DA1F022A17D90121074816
:104A500009F0CAFC56E700BF182B0020183B0020C5
:104A60000000FA4400007A44184B002044750020EE
:104A700000000000185B00200000C842BDF8805014
:104A8000AA0505F0380805F4E07705F4806605F41A
:104A9000006402D5002F3FF435AF4FF0000915F048
:104AA0000705CDF82490CDF82890CDF82C9027D18B
:104AB0001FED0F6A9DED167ADDED177ADDED156AB3
:104AC00027EE067A67EEC67A66EE866A083B012B09
:104AD000CDED096A8DED0A7ACDED0B7A04D86448E4
:104AE0000AAA09A9FDF786FC9DF88430073B022B32
:104AF00006D860487AF018F9014609A827F0AEFDFB
:104B0000CDF83090CDF83490CDF83890B8F1000F52
:104B10001DD19FED596A9DED197ADDED1A7ADDED13
:104B2000186A9DF8843027EE067A67EEC67A66EE3C
:104B3000866A083B012BCDED0C6A8DED0D7ACDED2B
:104B40000E7A04D84A480DAA0CA9FDF753FCCDF8FB
:104B50004090CDF84490CDF84890EFB99FED466A6B
:104B60009DED1C7ADDED1D7ADDED1B6A9DF884302C
:104B700027EE067A67EEC67A66EE866A083B012B58
:104B8000CDED106A8DED117ACDED127A04D838484A
:104B900011AA10A9FDF72EFC7EBBDFED387A9DED42
:104BA0001E0A9DF8843020EE270ADFED337A083B99
:104BB000012B20EE270A8CBF002301230CBBDFED65
:104BC0002F7ADDED1F0A60EEA70ADFED2B7A60EE8B
:104BD000A70ACDB9B8F1000F3AD1B4FA84F4B6FA05
:104BE00086F66409760902930194009610AB0CAA2C
:104BF00009A9234809F0D4FF84E69FED220A002387
:104C0000DCE7DFED200AE4E7B8F1000F0FD1012265
:104C1000B4FA84F4CDE901326409B6FA86F300945B
:104C20005B0910AA0CA9164809F04CFF6AE6002F90
:104C30007FF40CAF0122CDE90032B4FA84F3B6FA66
:104C400086F25B09520910A90D4809F0E3FE59E606
:104C5000002F3FF4FBAECDE90035B6FA86F2B4FA88
:104C600084F35B09520909A9054809F017FD49E6D3
:104C7000182B0020946500200000C842E02E6542F9
:104C80004475002000000000204614A9FEF7B8FC7F
:104C9000804BD3F8240E03685B6A984700283FF4E2
:104CA00031AEBDF88040A30504F4E07702D5002FB3
:104CB0003FF428AE0CAE04F00708304617F00AFCAB
:104CC000B8F1000F25D1DDE9150125F095FB00288D
:104CD0003FF4BCAE9DF8841009AA284657F054FF53
:104CE00000283FF4B3AEDDED177A9FED6B7A099B98
:104CF000009367EE877A10ADFDEEE77ADDE91512D5
:104D000017EE903A284617F005FC95E80F0086E864
:104D10000F00002514F0380A06950795089513D161
:104D20009FED5D6A9DED197ADDED1A7ADDED186A69
:104D300027EE067A67EEC67A66EE866A8DED077A0A
:104D4000CDED066ACDED087A09950A950B959FB9C8
:104D50009FED516A9DED1C7ADDED1D7ADDED1B6A3C
:104D600027EE067A67EEC67A66EE866A8DED0A7AD7
:104D7000CDED096ACDED0B7A14F4806905BFDFED46
:104D8000477A9DED1E0A9FED460A20EE270A04BFD2
:104D9000DFED417A20EE270A14F4006405BFDFED51
:104DA0003F7ADDED1F0ADFED3E0A60EEA70A04BF81
:104DB000DFED397A60EEA70AB8F1000F31D1BAF110
:104DC000000F4CD13046CDED050A8DED040A17F0E9
:104DD000B1FB03289DED040ADDED050A3FF436AE74
:104DE00010A93046CDED050A8DED040A10951195F8
:104DF000129517F01DFD00283FF428AEB4FA84F494
:104E00006409B9FA89F3DDED050A9DED040ACDF8D0
:104E100004A000945B0906AA10A9224809F030FFFB
:104E200070E5BAF1000F0CD10123B4FA84F4CDE996
:104E300001A36409B9FA89F300945B0909AA06A9D8
:104E4000F1E6002F7FF402AE0123CDE90073B9FA39
:104E500089F2B4FA84F35B09520909A9F4E6002F38
:104E60003FF4F4ADB4FA84F3B9FA89F2CDF80080D6
:104E70005B09520931460B4809F0D8FC42E50A4665
:104E8000017C094822B0BDEC028BBDE8F0474BF035
:104E9000E5BC00BF184B00200000C842E02E654270
:104EA0000000000044750020186700202DE9F04143
:104EB0002DED028B90B0044600230122694600F5D7
:104EC000705000934CF076FA08B94E4B009304F5FD
:104ED0000056DFED4D8AD6F8240E03685B699847CB
:104EE00004F54058002840F08880D8F89C3AD3ED6B
:104EF000987A93ED928AFDEEE77A28EE288A17EEEB
:104F0000903A1DB204F52C57243701A938460FF00A
:104F10003FFD18B94FF076F83A4B01933722002144
:104F200002A8B3F01BFAA3238DF8083095238DF85F
:104F300009308BF0B5FCD8F8983ACDF80B00D6F8CC
:104F4000480ED3F8AC20D3F8B030CDF80F1038307D
:104F5000CDF81320CDF8173051F08AFB0346DFED72
:104F60002B0A93ED000AB7EE001A9A2024F024F9D8
:104F700010EE103AD6F8480ECDF81B3003689B6847
:104F8000984710EE103A04F56956CDF81F303C36BC
:104F900018EE103A3046CDF8233079F0C9FE20EEF5
:104FA000280A384610EE103ACDF82730D8F8403AA3
:104FB000CDF82B30019BCDF82F300FF00FFD10EE08
:104FC000103A3046CDF83330009BCDF83730ADF88D
:104FD0003B5079F0B9FEBDEEC00A04F5275010EE43
:104FE000103A372202A90C30ADF83D304EF0ACF843
:104FF00010B0BDEC028BBDE8F0819FED048A002566
:1050000080E700BF2292CA7F0AD7233C000000003D
:1050100070B500F540560446D6F8980A9FED170A79
:105020008AB03C3027F0FAFA0AAACDED080A8DEDD5
:10503000091A8DED070A12E9070001AD85E807009E
:1050400004AB9DED030A83E8070024F049F804F55A
:10505000905004F50054294610308DED030A10F0ED
:1050600061FFD6F89C3AD6F8982AD4F8481ED4F8AE
:10507000900B11F0A9F80AB070BD00BF9F0CB345AA
:1050800070B54FF4805105460FF0D0FD00284FD089
:1050900005F5405605F52754D6F8980A03689B682D
:1050A00098470C3400F19002622120464DF03EFDFD
:1050B000D6F8980A0368DB689847632100F19002EC
:1050C00020464DF033FDD6F8980A03681B699847CF
:1050D000642100F1900220464DF028FDD6F89C2A6C
:1050E0006521204602F5E8724DF020FD202128467A
:1050F0000FF09CFDE0B105F50053D3F8240E0368D2
:105100001B69984778B1D6F89C2A204694326721CB
:105110004DF00CFDD6F89C2A2046BC32BDE870400C
:1051200068214DF003BD28460AF072FB0028EAD141
:1051300070BD000008B512F061FCBDE8084012F037
:1051400043BC00007FB50E464FF6FF71044615467E
:105150000FF06CFDE8B1102200216846B3F0FEF8B4
:10516000A3238DF8003095238DF8013003238DF8AB
:1051700002308BF095FBCDF8030004F52750CDF8F5
:105180000710102269460C308DF80B6003954EF025
:105190005BF804B070BD00007FB50E464FF6FF719E
:1051A000044615460FF042FDE8B110220021684682
:1051B000B3F0D4F8A3238DF8003095238DF8013097
:1051C00004238DF802308BF06BFBCDF8030004F55F
:1051D0002750CDF80710102269460C308DF80B606F
:1051E00003954EF031F804B070BD000030B52DEDE0
:1051F000048B87B004460D46182200216846B0EEA5
:10520000409AF0EE608AB0EE418AB3F0A7F8A3238B
:105210008DF8003095238DF8013006238DF802308B
:105220008BF03EFBCDF8030004F52750CDF80710B6
:10523000182269460C308DF80B508DED039ACDED98
:10524000048A8DED058A4DF07FFF07B0BDEC048B1D
:1052500030BD000010B54FF4801104460FF0E6FC9D
:1052600030B104F590501030BDE8104010F04CBF44
:1052700010BD00002DE9F04F2DED028B8DB0804662
:105280002F220021684611EE10BA11EE90AA12EEFC
:10529000109A12EE907A13EE106A13EE905A14EEF2
:1052A000104AF0EE408AB0EE608AB3F057F8A323BC
:1052B0008DF8003095238DF8013009238DF80230E8
:1052C0008BF0EEFA18EE903ACDF80300CDF80B30E3
:1052D00008F5275018EE103ACDF807102F2269462E
:1052E0000C30CDF80F30CDF813B0CDF817A0CDF8B5
:1052F0001B90CDF81F70CDF82360CDF82750CDF866
:105300002B404DF021FF0DB0BDEC028BBDE8F08FBE
:1053100030B52DED088B8BB004460D4628220021B8
:105320006846B0EE40BAF0EE60AAB0EE41AAF0EEE8
:10533000619AB0EE429AF0EE628AB0EE438AB3F020
:105340000DF8A3238DF8003095238DF801300A2342
:105350008DF802308BF0A4FACDF8030004F5275045
:10536000CDF80710282269460C308DF80B508DEDD2
:1053700003BACDED04AA8DED05AACDED069A8DED0B
:10538000079ACDED088A8DED098A4DF0DDFE0BB050
:10539000BDEC088B30BD00002DE9F0438FB0144602
:1053A000054689463122002101A8DDE91676984696
:1053B000B2F0D4FFA3238DF8043095238DF8053087
:1053C00008238DF806308BF06BFA2368049363682A
:1053D0000593A36806933B68CDF81D307B68CDF834
:1053E0002130BB68CDF825303368CDF80700CDF803
:1053F000293005F527507368CDF80B10CDF82D3006
:105400003122B3688DF80F9001A90C308DF81C8003
:10541000CDF831304DF098FE0FB0BDE8F0830000BC
:1054200070B52DED068B8CB0144605460E462C2229
:10543000002101A8B0EE409AF0EE608AB0EE418AF9
:10544000B0EE61AAF0EE429AB2F088FFA3238DF885
:10545000043095238DF805300B238DF806308BF042
:105460001FFADFED1A7A94ED007ACDF8070027EEE7
:10547000277A29EE279A8DED077A94ED017ACDF8F7
:105480000B1027EE277A68EEA78A8DED087A94ED47
:10549000027A8DF80F6028EE278A05F5275067EE0F
:1054A000277A2C2201A90C308DED049ACDED058AC6
:1054B0008DED068ACDED097A8DED0AAACDED0B9A18
:1054C0004DF042FE0CB0BDEC068B70BDE02E654287
:1054D00030B5154B044689B004F52755D3F8480E6E
:1054E00069460C351E227AF0C7FC6A460F492846E9
:1054F0004DF0AEFF04F50053D3F8240E03681B688B
:10550000984704F58053014693F8C82E28464DF07D
:10551000C3FF04F59050103012F0C4FC04F5847001
:105520001CF066FD09B030BD184B00209A1C0D0818
:1055300000F52750024995220C304EF071BA00BF99
:1055400048F40C08F8B53B4B4360044608306DF056
:105550007BF904F1600064F07DFF0023364AC4F853
:105560008830C4F88C30C4F89030C4F8B030334B75
:10557000C4F8A820C4F8B4304FF08042304BC4F8CF
:10558000B830C4F8AC2004F1BC007DF09BFD04F5FC
:10559000C47059F0EBFE2B4F2B4BC4F888314FF4FD
:1055A000D27540F2644660195AF04CF867512C35B8
:1055B000B542F8D104F264405BF060FC002104F6CF
:1055C00074007DF07DF904F6281080F0F1F804F6FF
:1055D000481080F0C5FC1D4BC4F8D03903F2EC42F2
:1055E00003F5D663C4F8DC29C4F8E8399FED181A2E
:1055F000DFED180A9FED180A04F6EC1073F0A6FC14
:105600009FED131A9FED150AF0EE410A04F6F8100B
:1056100073F09CFC9FED0E1A9FED100AF0EE410A0C
:1056200004F6042073F092FC20460D4943F0FCFD83
:105630002046F8BDD03700200000C8410AD7233CDF
:105640000000E040301A0D08441A0D087C7200205A
:10565000000000009A99993E0000B44300804A433C
:10566000D80B0D08F0B52DED028B7E4C7E49ADF5C3
:105670005B7D074690224AA8B2F048FE0FCC16ADDB
:105680000FC50FCC0FC594E80F0004F5987685E898
:105690000F0004F110014FF4907292A8B2F036FEA0
:1056A0000FCE06AD0FC596E80F0004F5A87485E887
:1056B0000F000FCC22AD0FC50FCC0FC50FCC0FC5FF
:1056C00094E80F0085E80F0007F5805393F95A2FEF
:1056D000531EDBB2012B40F2C1809FED648A9FED27
:1056E000640A032A18BFB0EE408A00244AAB181996
:1056F0000021B0EE480A103443F068FA902CF5D13E
:105700009FED5C8A002416AB18190021B0EE480A00
:10571000103443F05BFA302CF5D1002492AB181909
:105720000021B7EE000A103443F050FAB4F5907F30
:10573000F4D19FED510A002106A843F047FA002159
:105740000AA89FED4D0A43F041FA4C4B0FCB02AC37
:1057500084E80F0001A9204643F0ECF990B19DF9CF
:105760000430DFED476AE06807EE103AB8EEC77A1A
:10577000F0EE007AE7EE267AB7EE000A80EE270A0E
:1057800043F08EFF002422AB181900211034B7EE2D
:10579000000A43F01BFA402CF5D13A4990226EA83A
:1057A000B2F0B4FD6EAC0025204600220121013587
:1057B00043F09EFA092D04F11004F5D197F9F4692C
:1057C00006BB314D0FCD32AC0FC40FCD0FC40FCD82
:1057D0000FC495E80F0084E80F0032AD2846002280
:1057E0000121013643F084FA042E05F11005F5D1AC
:1057F0009FED260A264843F053FF2648B7EE000ADD
:1058000043F04EFF244C9FED250A0FCC0EAD0FC583
:1058100094E80F0085E80F0000210EA843F0D6F9A8
:105820009FED1E0A0021284643F0D0F904F1100133
:10583000602232A8B2F06AFD002432AB18190021B0
:10584000B7EE000A103443F0C1F9602CF5D15BF0DB
:105850009DF80DF55B7DBDEC028BF0BD9FED038ADD
:1058600043E700BF28BB0C0898BA0C086666663F81
:105870005C8FA23F530469396F12833AD8BC0C087D
:10588000CDCCCC3DE8BC0C0878BD0C080000000075
:10589000080A0D08170A0D08B8BD0C0800003442AC
:1058A0002DE9F04790B00DF106011D205BF036FAAE
:1058B000002800F09E809DF80630614A0133DBB27B
:1058C00011210BA88DF8063087F0E8FF00220DF1BA
:1058D00007010BA842F060FD9DF80630594A1121DE
:1058E00005460BA887F0DAFF00220DF107010BA88F
:1058F00042F052FD9DF80630534A112106460BA88E
:1059000087F0CCFF00220DF107010BA842F044FD07
:105910009DF806304D4A03F03F03112107460BA8BE
:1059200087F0BCFF00220DF107010BA842F034FD07
:105930008046002D5DD0002E5BD0002F59D000286E
:1059400057D0284642F036FF002852D1304642F068
:1059500031FF00284DD1384642F02CFF002848D1B5
:10596000404642F027FF002843D1394C94E80F000D
:105970000DF10C0C10348CE80F0094E80F000DF1C1
:105980001C0989E80F0002A9604643F0D3F898B3D8
:10599000BDF8084002A9484643F0CCF800284AD098
:1059A000BDF8083054BB23B340F2E2449C420FFAE6
:1059B00084FA0FFA83F927D80DF10A013046ADF8C1
:1059C0000A9044F053FA0DF10A012846ADF80AA0F6
:1059D00044F04CFA0DF10A013846ADF80AA044F043
:1059E00045FA00230DF10A014046ADF80A3044F0B3
:1059F00057FA10B0BDE8F0870024CBE740F2D6623A
:105A0000002B08BF1346D1E70DF10A013046ADF86F
:105A10000AA044F02BFA0DF10A012846ADF80A90CD
:105A200044F024FA0DF10A013846ADF80A9044F02A
:105A30001DFA0123D6E7002CDBD040F2D663B5E790
:105A4000280A0D08340A0D08400A0D084D0A0D08F1
:105A500038BE0C0837B50446002218480DF1030182
:105A600042F09AFC054630B342F0A4FE18BB9DF804
:105A70000330032B1FD104F580541023019394F9B4
:105A8000423F022B06D111230D480193B7EE000AC5
:105A900043F06CFE94F9313F022B08D1019B094879
:105AA00043F00203B7EE000A019343F05FFE01A941
:105AB000284644F02DFA03B030BD00BF4CC10C089D
:105AC000600A0D086E0A0D087FB5044642F07CFAA4
:105AD000364B1D6838B9286C354903681B689847F0
